:100000000208A07F381200857F0E1200857F011242
:0900100000E57F0A7E0002008C6D
:100023000208008B0D8A0E890FE4F510F511AB0D54
:10003300AA0EA90F851182851083120058FF601440
:100043001200F57F017E0012008C0511E51170DEB0
:10005300051080DA22BB010CE58229F582E5833A9B
:10006300F583E0225006E92582F8E622BBFE06E985
:100073002582F8E222E58229F582E5833AF583E4D5
:1000830093221200E57F0A7E00E4FDFCC3ED9FECA2
:100093009E5015E4FBFA0BBB00010ABA04F8BBFB44
:1000A300F50DBD00010C80E4221200CF1200037B8A
:1000B300FF7A01793F120026D2B6AD12AF141201B6
:1000C30005C2B6AD15AF1312010580ECE4F590C27D
:1000D300A1C2A2758921758DFD759850D28E75A820
:1000E30090228F90C2A1D2A27F017E0012008CC207
:1000F300A2228F90D2A1D2A27F047E0012008CC2D2
:10010300A2228F8C8D8AD28C308DFDC28DC28C221F
:100113000114FA01129A0113BD011565007F011242
:1001230000E57F0A7E0002008C474F202D3E3E00F3
:1001330053544F5000574149542E2E00507265734B
:0F014300732074686520427574746F6E2E2E00E1
:10080000C0E0C0F0C083C082C0D075D000C000C0BE
:1008100001C002C003C004C005C006C0073098650F
:10082000120120E599B467147514FC7512677513ED
:10083000BB7515987BFF7A01792C8044E599B472D9
:10084000147514FA75129A7513BD7515657BFF7AC8
:10085000017933802BE599B479147514FA75129ADD
:100860007513BD7515657BFF7A0179388012751493
:10087000FA75129A7513BD7515657BFF7A01793388
:10088000120026C298D007D006D005D004D003D0DD
:1008900002D001D000D0D0D082D083D0F0D0E032CE
:1008A000787FE4F6D8FD7581150208E70200ACE414
:1008B00093A3F8E493A34003F68001F208DFF480E9
:1008C00029E493A3F85407240CC8C333C4540F4439
:1008D00020C8834004F456800146F6DFE4800B0113
:1008E00002040810204080900113E47E019360BC54
:1008F000A3FF543F30E509541FFEE493A360010EAB
:10090000CF54C025E060A840B8E493A3FAE493A3D1
:10091000F8E493A3C8C582C8CAC583CAF0A3C8C5F2
:0C09200082C8CAC583CADFE9DEE780BEDA
:00000001FF
