:100000000C9432000C94E7040C9417050C944F00E8
:100010000C944F000C944F000C944F000C944F0024
:100020000C944F000C944F000C944F000C944F0014
:100030000C944F000C944F000C944F000C944F0004
:100040000C944F000C944F000C9447050C944F00F7
:100050000C944F00AB05B505BF05C905D305DD05FB
:10006000E705F10511241FBECFE5D4E0DEBFCDBF0B
:1000700010E0A0E6B0E0E6E8F2E102C005900D92E3
:10008000AE38B107D9F720E0AEE8B0E001C01D926C
:10009000A739B207E1F70E945B020C9441090C9466
:1000A000000041E00E941703089541E00E94870389
:1000B000089540E00E94870308950E94F703089581
:1000C0001F93CF93DF930097D1F0EC0110E013C0A2
:1000D000212F30E0D9011196AA0FBB1FAC0FBD1F15
:1000E000220F331FFE01E20FF31F41E06C9181816B
:1000F0000E9417031F5F1A3058F381E001C080E0AF
:10010000DF91CF911F910895FF920F931F93CF938B
:10011000DF93009709F456C0062FEC01F88081E0C8
:10012000F81225C020C0E02FF0E0E05AFF4F4081D8
:10013000812F90E050E0012E02C0559547950A941A
:10014000E2F74170DC011196AA0FBB1FAC0FBD1F77
:10015000880F991FFE01E80FF91F6C9181810E94A1
:1001600087031F5F01C010E01830E8F22CC0FF20A9
:1001700019F1FF24F39427C0E02FF0E0E05AFF4F7D
:100180004081212F30E050E0012E02C05595479567
:100190000A94E2F74170D9011196AA0FBB1FAC0F68
:1001A000BD1F220F331FFE01E20FF31F6C918181EF
:1001B0000E9487031F5F01C010E01830E8F2FF249F
:1001C000F39401C0F12C8F2DDF91CF911F910F91EE
:1001D000FF900895CF9380918E0081114AC181E0F4
:1001E00080938E0080918C00813009F47BC020F0D8
:1001F000823009F4EDC036C160E080E00E94590011
:1002000069E78AE690E00E942E07C9E012C06C2FD1
:100210008BE790E00E94840061E080E00E945D0036
:1002200064E080E00E945D0082E790E00E940806A2
:10023000C150CC2364F761E080E00E94590064E083
:1002400080E00E94590065E080E00E94590062E071
:1002500080E00E94550067E68AE690E00E942E0743
:1002600063E080E00E945500C9E00AC06C2F8BE774
:1002700090E00E94840082E790E00E940806C1504E
:10028000CC23A4F762E080E00E94590069E78AE687
:1002900090E00E942E07C9E012C06C2F8BE790E01F
:1002A0000E94840061E080E00E945D0064E080E0E4
:1002B0000E945D0082E790E00E940806C150CC23B6
:1002C00064F761E080E00E94590064E080E00E94F1
:1002D000590063E080E00E94590065E080E00E94E0
:1002E0005500C0C069E78AE690E00E942E07C9E089
:1002F00012C06C2F8BE790E00E94840061E080E0E8
:100300000E945D0064E080E00E945D0082E790E072
:100310000E940806C150CC2364F761E080E00E948F
:10032000590064E080E00E94590065E080E00E948E
:10033000590062E080E00E94550067E68AE690E09E
:100340000E942E0763E080E00E945500C9E00AC0C9
:100350006C2F8BE790E00E94840082E790E00E947F
:100360000806C150CC23A4F762E080E00E9455004B
:1003700069E78AE690E00E942E07C9E012C06C2F60
:100380008BE790E00E94840061E080E00E945D00C5
:1003900064E080E00E945D0082E790E00E94080631
:1003A000C150CC2364F761E080E00E94590064E012
:1003B00080E00E94590063E080E00E94590063E001
:1003C00080E00E94590065E080E00E9455004AC02C
:1003D00067E68AE690E00E942E0763E080E00E94D4
:1003E0005500C9E00AC06C2F8BE790E00E948400A2
:1003F00082E790E00E940806C150CC23A4F762E097
:1004000080E00E94590065E080E00E94590069E7A1
:100410008AE690E00E942E07C9E012C06C2F8BE79D
:1004200090E00E94840061E080E00E945D0064E052
:1004300080E00E945D0082E790E00E940806C150C3
:10044000CC2364F761E080E00E94590064E080E022
:100450000E94590063E080E00E94590065E080E05E
:100460000E94550010928E0069E68AE690E00E9494
:100470002E0781E080938F00CF91089563E080E0A4
:100480000E94510065E080E00E94510064E080E03D
:100490000E94510060E080E00E94510062E080E034
:1004A0000E94510061E080E00E9451008BE790E0E3
:1004B0000E94600008954AEE50E063E080E00E94F0
:1004C000CB0482E790E00E94FB058AE690E00E9460
:1004D000EA060E943E0210928C0010928F0065E0A6
:1004E00080E00E94550060E080E00E94550062E0DC
:1004F00080E00E94590061E080E00E945900C9E05C
:100500000EC06C2F8BE790E00E94840082E790E0A1
:100510000E94080680918F00813019F0C150CC23D1
:1005200084F760E080E00E94590081E080938C00B5
:1005300010928F0062E080E00E94590060E080E04D
:100540000E945900C9E012C06C2F8BE790E00E9416
:10055000840061E080E00E945D0082E790E00E94FC
:10056000080680918F00813019F0C150CC2364F7C8
:1005700061E080E00E94590065E080E00E9459003F
:1005800082E080938C0010928F0063E080E00E94F4
:10059000550062E080E00E94550060E080E00E942B
:1005A000590061E080E00E945900C9E00EC06C2F44
:1005B0008BE790E00E94840082E790E00E940806AA
:1005C00080918F00813019F0C150CC2384F781E0F5
:1005D00080938C0010928F0062E080E00E945900AE
:1005E00060E080E00E945900C9E012C06C2F8BE7E8
:1005F00090E00E94840061E080E00E945D0082E75C
:1006000090E00E94080680918F00813019F0C1505F
:10061000CC2364F761E080E00E94590063E080E051
:100620000E94590065E080E00E94550054CF4111BE
:1006300038C0813091F028F08230D9F0833029F130
:1006400008952AB381E090E002C0880F991F6A954F
:10065000E2F7809582238ABB089527B381E090E07A
:1006600002C0880F991F6A95E2F78095822387BBA5
:10067000089524B381E090E002C0880F991F6A9525
:10068000E2F78095822384BB089521B381E090E056
:1006900002C0880F991F6A95E2F78095822381BB7B
:1006A0000895413099F5813089F028F08230C9F001
:1006B000833011F108952AB381E090E002C0880FE1
:1006C000991F6A95E2F7822B8ABB089527B381E0D0
:1006D00090E002C0880F991F6A95E2F7822B87BBD2
:1006E000089524B381E090E002C0880F991F6A95B5
:1006F000E2F7822B84BB089521B381E090E002C031
:10070000880F991F6A95E2F7822B81BB08954111EA
:1007100038C0813091F028F08230D9F0833029F14F
:1007200008952BB381E090E002C0880F991F6A956D
:10073000E2F7809582238BBB089528B381E090E097
:1007400002C0880F991F6A95E2F78095822388BBC3
:10075000089525B381E090E002C0880F991F6A9543
:10076000E2F78095822385BB089522B381E090E073
:1007700002C0880F991F6A95E2F78095822382BB99
:100780000895413099F5813089F028F08230C9F020
:10079000833011F108952BB381E090E002C0880FFF
:1007A000991F6A95E2F7822B8BBB089528B381E0ED
:1007B00090E002C0880F991F6A95E2F7822B88BBF0
:1007C000089525B381E090E002C0880F991F6A95D3
:1007D000E2F7822B85BB089522B381E090E002C04E
:1007E000880F991F6A95E2F7822B82BB08958130AA
:1007F00089F028F08230C9F0833011F108952BB3CD
:1008000081E090E002C0880F991F6A95E2F7822785
:100810008BBB089528B381E090E002C0880F991F38
:100820006A95E2F7822788BB089525B381E090E0BE
:1008300002C0880F991F6A95E2F7822785BB089549
:1008400022B381E090E002C0880F991F6A95E2F719
:10085000822782BB0895811124C0613069F028F09D
:10086000623089F06330B1F0089585B78E7F85BF1F
:1008700085B78D7F85BF089585B7816085BF85B7B2
:100880008D7F85BF089585B78E7F85BF85B78260D0
:1008900085BF089585B7816085BF85B7826085BFB4
:1008A0000895813021F5613069F028F0623089F0D7
:1008B0006330B1F0089585B78B7F85BF85B7877F9B
:1008C00085BF089585B7846085BF85B7877F85BF5D
:1008D000089585B78B7F85BF85B7886085BF0895EC
:1008E00085B7846085BF85B7886085BF08958230ED
:1008F00091F48BB78F7D8BBF623019F0633029F094
:1009000007C084B78F7B84BF03C084B7806484BF73
:100910008AB780628ABF0895811104C08BB7806452
:100920008BBF0895813021F48BB780688BBF089509
:10093000823019F48BB780628BBF0895813049F003
:1009400018F0823059F008957093950060939400E8
:1009500008957093930060939200089570939100AE
:10096000609390000895813051F018F0823069F062
:10097000089540E062E083E00E941703089540E09C
:1009800063E083E00E941703089540E062E081E0A5
:100990000E94170308950F931F93CF93DF93C82FDF
:1009A000D62F8A010E94B3046D2F8C2F0E942B0436
:1009B000B8018C2F0E949E048FB780688FBF8C2F48
:1009C0000E948C04DF91CF911F910F9108951F9287
:1009D0000F920FB60F9211242F933F934F935F9373
:1009E0006F937F938F939F93AF93BF93EF93FF93F7
:1009F0008091940090919500892B41F08AB7806492
:100A00008ABFE0919400F09195000995FF91EF91D4
:100A1000BF91AF919F918F917F916F915F914F9116
:100A20003F912F910F900FBE0F901F9018951F921E
:100A30000F920FB60F9211242F933F934F935F9312
:100A40006F937F938F939F93AF93BF93EF93FF9396
:100A50008091920090919300892B41F08AB7806831
:100A60008ABFE0919200F09193000995FF91EF9178
:100A7000BF91AF919F918F917F916F915F914F91B6
:100A80003F912F910F900FBE0F901F9018951F92BE
:100A90000F920FB60F9211242F933F934F935F93B2
:100AA0006F937F938F939F93AF93BF93EF93FF9336
:100AB0008091900090919100892B41F08AB78062DB
:100AC0008ABFE0919000F09191000995FF91EF911C
:100AD000BF91AF919F918F917F916F915F914F9156
:100AE0003F912F910F900FBE0F901F901895FC0112
:100AF0008081813069F028F0823089F08330B1F054
:100B0000089583B78F7B83BF83B7877F83BF0895A3
:100B100083B7806483BF83B7877F83BF089583B71C
:100B20008F7B83BF83B7886083BF089583B780645A
:100B300083BF83B7886083BF0895DC011296EC9170
:100B40008E2F90E08830910508F054C0FC01E65DDE
:100B5000FF4F0C943B0983B78E7F83BF83B78D7F94
:100B600083BF83B78B7F83BF089583B7816083BFC3
:100B700083B78D7F83BF83B78B7F83BF089583B790
:100B80008E7F83BF83B7826083BF83B78B7F83BF32
:100B9000089583B7816083BF83B7826083BF83B7C3
:100BA0008B7F83BF089583B78E7F83BF83B78D7F8D
:100BB00083BF83B7846083BF089583B7816083BF99
:100BC00083B78D7F83BF83B7846083BF089583B766
:100BD0008E7F83BF83B7826083BF83B7846083BF08
:100BE000089583B7816083BF83B7826083BF83B773
:100BF000846083BF0895CF93DF93EC010E94770553
:100C0000CE010E949D05898182BFDF91CF91089519
:100C10000F931F93FC0140E050E0BA010AC008B6F0
:100C200000FEFDCF98B7916098BF4F5F5F4F6F4F49
:100C30007F4F038114812581368140175107620758
:100C4000730769F71F910F910895FC01808181114D
:100C500006C0809196008F7B809396000895813026
:100C600029F4809196008064809396000895FC0199
:100C700085818230F1F028F4882341F0813079F0C9
:100C80000895833001F1843039F108958091960000
:100C9000897F809396008AB18B7F8AB9089580916D
:100CA000960082608B7F809396008AB18B7F8AB991
:100CB0000895809196008D7F8460809396008AB11C
:100CC0008B7F8AB908958091960086608093960004
:100CD0008AB18B7F8AB9089580919600866080934F
:100CE00096008AB184608AB90895FC0186818130BA
:100CF00051F018F0823069F00895809196008F7C51
:100D0000809396000895809196008063809396006A
:100D10000895809196008F7E80628093960008955A
:100D2000FC018781811106C080919600877F8093A6
:100D300096000895813029F4809196008860809310
:100D400096000895FC01248121111BC062817381EA
:100D500080E090E00E94400820E030E040E851E46C
:100D60000E94CE089B01AC0160E074E284EF9AE43B
:100D70000E949F0720E030E040E85FE30E943207D6
:100D800024C02130F9F42BB122602BB9FC0162811F
:100D9000738180E090E00E94400820E030E040E075
:100DA00051E40E94CE089B01AC0160E074E284EF44
:100DB0009AE40E949F0720E030E040E85FE30E9451
:100DC000320703C060E070E0CB010E94110869B9EE
:100DD00010BC0895CF93DF930097E9F1EC011AB8A6
:100DE0001BB810BC86E880BD1BB888E18AB940E01A
:100DF00060E083E00E94170341E061E083E00E942D
:100E00001703CE010E94A206CE010E942506CE0144
:100E10000E943706CE010E947506CE010E94900600
:100E20008981811107C08AB188608AB98AB18F7EB1
:100E30008AB911C0813039F48AB1877F8AB98AB101
:100E400080618AB908C0823031F48AB188608AB979
:100E50008AB180618AB9DF91CF9108955D9BFECF01
:100E60006CB908955058BB27AA270E944A070C94D2
:100E700094080E94860838F00E948D0820F039F40A
:100E80009F3F19F426F40C9483080EF4E095E7FBD9
:100E90000C947D08E92F0E94A50858F3BA17620741
:100EA00073078407950720F079F4A6F50C94C7081A
:100EB0000EF4E0950B2EBA2FA02D0B01B901900175
:100EC0000C01CA01A0011124FF27591B99F0593FB9
:100ED00050F4503E68F11A16F040A22F232F342F01
:100EE0004427585FF3CF469537952795A795F0404F
:100EF0005395C9F77EF41F16BA0B620B730B840B64
:100F0000BAF09150A1F0FF0FBB1F661F771F881F1B
:100F1000C2F70EC0BA0F621F731F841F48F4879573
:100F200077956795B795F7959E3F08F0B0CF939565
:100F3000880F08F09927EE0F9795879508950E94DE
:100F4000B3070C9494080E948D0858F00E948608FC
:100F500040F029F45F3F29F00C947D0851110C9466
:100F6000C8080C9483080E94A50868F39923B1F37C
:100F7000552391F3951B550BBB27AA2762177307BF
:100F8000840738F09F5F5F4F220F331F441FAA1F53
:100F9000A9F335D00E2E3AF0E0E832D0915050400F
:100FA000E695001CCAF72BD0FE2F29D0660F771FBD
:100FB000881FBB1F261737074807AB07B0E809F0A3
:100FC000BB0B802DBF01FF2793585F4F3AF09E3F28
:100FD000510578F00C947D080C94C8085F3FE4F349
:100FE000983ED4F3869577956795B795F7959F5F6B
:100FF000C9F7880F911D9695879597F90895E1E0B7
:10100000660F771F881FBB1F621773078407BA0715
:1010100020F0621B730B840BBA0BEE1F88F7E09570
:1010200008950E94AD0888F09F5798F0B92F99272E
:10103000B751B0F0E1F0660F771F881F991F1AF0C3
:10104000BA95C9F714C0B13091F00E94C708B1E059
:1010500008950C94C708672F782F8827B85F39F058
:10106000B93FCCF3869577956795B395D9F73EF45C
:1010700090958095709561957F4F8F4F9F4F089504
:10108000E89409C097FB3EF4909580957095619522
:101090007F4F8F4F9F4F9923A9F0F92F96E9BB27D8
:1010A0009395F695879577956795B795F111F8CF54
:1010B000FAF4BB0F11F460FF1BC06F5F7F4F8F4FBF
:1010C0009F4F16C0882311F096E911C0772321F0B5
:1010D0009EE8872F762F05C0662371F096E8862F4D
:1010E00070E060E02AF09A95660F771F881FDAF7A4
:1010F000880F9695879597F9089597F99F6780E8E7
:1011000070E060E008959FEF80EC089500240A9459
:101110001616170618060906089500240A941216D2
:101120001306140605060895092E0394000C11F405
:10113000882352F0BB0F40F4BF2B11F460FF04C0B2
:101140006F5F7F4F8F4F9F4F089557FD9058440F0B
:10115000551F59F05F3F71F04795880F97FB991F16
:1011600061F09F3F79F087950895121613061406D3
:10117000551FF2CF4695F1DF08C016161706180660
:10118000991FF1CF86957105610508940895E8943B
:10119000BB2766277727CB0197F908950E94E108BE
:1011A0000C9494080E94860838F00E948D0820F064
:1011B000952311F00C947D080C94830811240C9451
:1011C000C8080E94A50870F3959FC1F3950F50E0E1
:1011D000551F629FF001729FBB27F00DB11D639FE9
:1011E000AA27F00DB11DAA1F649F6627B00DA11D8F
:1011F000661F829F2227B00DA11D621F739FB00D35
:10120000A11D621F839FA00D611D221F749F3327A4
:10121000A00D611D231F849F600D211D822F762F3D
:101220006A2F11249F5750409AF0F1F088234AF01A
:10123000EE0FFF1FBB1F661F771F881F9150504086
:10124000A9F79E3F510580F00C947D080C94C808C6
:101250005F3FE4F3983ED4F3869577956795B7950D
:10126000F795E7959F5FC1F7FE2B880F911D969527
:10127000879597F90895EE0FFF1F0590F491E02DE3
:061280000994F894FFCF71
:10128600C0F9A4B0999282F88090000280250003EC
:101296000000000601401F000000000002000201DD
:0E12A600020202030204020502060207020011
:00000001FF
